S01A0000506F7765724F424374776F7761792D4F42432E737265637D
S113000096C00000B1C00000AFC00000ADC0000049
S1130010ABC00000A9C00000A7C00000A5C000003C
S1130020A3C00000A1C000009FC000009DC000004C
S11300309BC0000099C0000097C0000095C000005C
S113004093C0000091C000008FC000008DC000006C
S11300508BC0000089C0000087C0000085C000007C
S113006083C0000081C000007FC000007DC000008C
S11300707BC0000079C0000077C0000075C000009C
S113008073C00000E6C000006FC000004501970186
S113009097019701970197019701970145019701EE
S11300A097019701970197019701970147019701DC
S11300B0970197019701970197019701970197017C
S11300C097019701970197019701970147019701BC
S11300D0970197019701970197019701970197015C
S11300E09701970197019701970197019301970150
S11300F09701970197019701970197017001970163
S1130100970197019701970197019701970197012B
S1130110970197019701970197019701640197014E
S11301209701970197019701970197018201112483
S11301301FBECFEFD0E1DEBFCDBF11E0A0E0B1E044
S1130140EAE9F3E000E00BBF02C007900D92A23091
S1130150B107D9F721E0A2E0B1E001C01D92A930B6
S1130160B207E1F702D017C14BCFCF93DF93CDB7DE
S1130170DEB72F970FB6F894DEBF0FBECDBF7894CD
S113018080E2898381E288871BD0E7D010E31A8359
S113019062E0CE0101961ED062E0CE0108961AD02C
S11301A062E0CE01089638D08985E8D02FE788E34D
S11301B091E0215080409040E1F700C00000E7CF7B
S11301C08CE0809370008FEF8093730084E08093C1
S11301D074000895DC01E4E7F0E0908190FDFDCF28
S11301E0609304018C918093050180FD0CC0623002
S11301F050F0FD013196A6E0B1E081E091919D932C
S11302008F5F6813FBCF1092030188EF8093000186
S113021085EA809374000895E4E7F0E0208120FDEE
S1130220FDCF2091030120FF10C0662371F0E5E0AB
S1130230F1E0A82FB92F6150862F90E08A5F9E4F7E
S113024021912D93E817F907D9F780910301817063
S113025008951F920F920FB60F9211240BB60F92AE
S11302602F933F938F939F93AF93BF93EF93FF93FA
S1130270E09171008E2F90E0FC013897E135F10593
S113028008F055C0EA5BFF4F7DC010920201E09177
S1130290020180910401E81770F481E08E0F8093CD
S11302A00201F0E0EB5FFE4F80818093730085E8EC
S11302B08093740043C080910301816080930301A3
S11302C084E9809374003AC0E091020181E08E0FCA
S11302D08093020180917300F0E0EB5FFE4F808316
S11302E02091020130E08091040190E001972817E9
S11302F0390724F485EC8093740020C085E880934A
S113030074001CC080917300E0910201F0E0EB5F87
S1130310FE4F80838091030181608093030184E90F
S1130320809374000BC085EA8093740007C08091A9
S113033071008093000184E080937400FF91EF9139
S1130340BF91AF919F918F913F912F910F900BBED1
S11303500F900FBE0F901F9018951BB81AB8E5E9BF
S1130360F0E01082599A8AB188618AB980818E60DE
S1130370808387E689B91092900008955D9BFECF33
S11303808CB90895EE0FFF1F0024001C0BBE0790CC
S10D0390F691E02D0994F894FFCFD4
S105039AF80065
S9030000FC
