:100000000C942A000C9447000C9447000C94470071
:100010000C9447000C9447000C9447000C94470044
:100020000C9447000C9447000C9447000C94470034
:100030000C9447000C9447000C9447000C94470024
:100040000C9447000C9447000C9447000C949600C5
:100050000C94470011241FBECFE5D8E0DEBFCDBF12
:1000600010E0A0E6B0E0E4EAF2E002C005900D92F4
:10007000A236B107D9F720E0A2E6B0E001C01D9298
:10008000A937B207E1F70E9449000C9450010C9483
:10009000000078940E943E0180E20E946D0061E0C1
:1000A00081E790E00E9473000F2EF1E7EF2EF0E061
:1000B000FF2EF02D0AE610E0C9E3F70180810E94CF
:1000C0004C01F801C083FFEF20E782E0F1502040AF
:1000D0008040E1F700C00000F0CF82B984E086BF25
:1000E0001092640008959C01909164009111FECFDC
:1000F00060936500662379F0F901A6E6B0E06150EF
:1001000070E06F5F7F4FC901860F971F21912D937C
:10011000E817F907D9F71092630088EF8093600021
:1001200085EC86BF81E08093640008951F920F9252
:100130000FB60F9211248F939F93AF93BF93EF93BA
:10014000FF9381B1803909F460C090F4803709F4DD
:100150004AC038F4882309F479C0803609F448C0CD
:100160007BC0803809F451C0883809F46FC074C06E
:10017000883A81F038F4883909F468C0803A09F483
:1001800060C06AC0803CD9F0883C09F45FC0883BFD
:1001900019F062C0109262008091620090916A0032
:1001A000E82FF0E0EA59FF4F90838F5F8093620061
:1001B00093B985EC86BF81E08093640054C0909130
:1001C000620080916500981306C080916300816091
:1001D0008093630003C081B18093600085EC86BF8B
:1001E0001092640040C0809163008460809363003B
:1001F000809163008260809363001092620085ECBE
:1002000086BF81E0809364002EC0A0916200E1E08F
:10021000EA0FE093620083B1B0E0AA59BF4F8C931C
:10022000F0E0EB59FF4F8081809371008091630073
:1002300081608093630085EC86BF81E080936400D9
:1002400012C085EC86BF109264000DC081B180930E
:10025000600080E986BF07C081B18093600085ECB3
:1002600086BF10926400FF91EF91BF91AF919F9173
:100270008F910F900FBE0F901F9018951BB81AB852
:1002800010BC599A8AB188618AB980B58E6080BDE8
:1002900087E689B910BC08955D9BFECF8CB908959F
:0402A000F894FFCF00
:0202A400F80060
:00000001FF
